{
	"blockchain-jamlog.sol": {
		"SDRSignalLog": {
			"abi": [
				{
					"anonymous": false,
					"inputs": [
						{
							"indexed": true,
							"internalType": "uint256",
							"name": "id",
							"type": "uint256"
						},
						{
							"indexed": true,
							"internalType": "address",
							"name": "reporter",
							"type": "address"
						},
						{
							"indexed": false,
							"internalType": "uint256",
							"name": "freqHz",
							"type": "uint256"
						},
						{
							"indexed": false,
							"internalType": "int256",
							"name": "rssi",
							"type": "int256"
						},
						{
							"indexed": false,
							"internalType": "bool",
							"name": "detected",
							"type": "bool"
						},
						{
							"indexed": false,
							"internalType": "bytes32",
							"name": "metaHash",
							"type": "bytes32"
						},
						{
							"indexed": false,
							"internalType": "uint256",
							"name": "time",
							"type": "uint256"
						}
					],
					"name": "ReadingSubmitted",
					"type": "event"
				},
				{
					"inputs": [
						{
							"internalType": "uint256",
							"name": "id",
							"type": "uint256"
						}
					],
					"name": "getReading",
					"outputs": [
						{
							"components": [
								{
									"internalType": "address",
									"name": "reporter",
									"type": "address"
								},
								{
									"internalType": "uint256",
									"name": "freqHz",
									"type": "uint256"
								},
								{
									"internalType": "int256",
									"name": "rssi",
									"type": "int256"
								},
								{
									"internalType": "bool",
									"name": "detected",
									"type": "bool"
								},
								{
									"internalType": "uint256",
									"name": "time",
									"type": "uint256"
								},
								{
									"internalType": "bytes32",
									"name": "metaHash",
									"type": "bytes32"
								}
							],
							"internalType": "struct SDRSignalLog.Reading",
							"name": "",
							"type": "tuple"
						}
					],
					"stateMutability": "view",
					"type": "function"
				},
				{
					"inputs": [
						{
							"internalType": "uint256",
							"name": "",
							"type": "uint256"
						}
					],
					"name": "readings",
					"outputs": [
						{
							"internalType": "address",
							"name": "reporter",
							"type": "address"
						},
						{
							"internalType": "uint256",
							"name": "freqHz",
							"type": "uint256"
						},
						{
							"internalType": "int256",
							"name": "rssi",
							"type": "int256"
						},
						{
							"internalType": "bool",
							"name": "detected",
							"type": "bool"
						},
						{
							"internalType": "uint256",
							"name": "time",
							"type": "uint256"
						},
						{
							"internalType": "bytes32",
							"name": "metaHash",
							"type": "bytes32"
						}
					],
					"stateMutability": "view",
					"type": "function"
				},
				{
					"inputs": [
						{
							"internalType": "uint256",
							"name": "freqHz",
							"type": "uint256"
						},
						{
							"internalType": "int256",
							"name": "rssi",
							"type": "int256"
						},
						{
							"internalType": "bool",
							"name": "detected",
							"type": "bool"
						},
						{
							"internalType": "bytes32",
							"name": "metaHash",
							"type": "bytes32"
						}
					],
					"name": "submitReading",
					"outputs": [
						{
							"internalType": "uint256",
							"name": "id",
							"type": "uint256"
						}
					],
					"stateMutability": "nonpayable",
					"type": "function"
				},
				{
					"inputs": [],
					"name": "totalReadings",
					"outputs": [
						{
							"internalType": "uint256",
							"name": "",
							"type": "uint256"
						}
					],
					"stateMutability": "view",
					"type": "function"
				}
			],
			"devdoc": {
				"kind": "dev",
				"methods": {},
				"version": 1
			},
			"evm": {
				"assembly": "    /* \"blockchain-jamlog.sol\":61:1925  contract SDRSignalLog {... */\n  mstore(0x40, 0x80)\n  callvalue\n  dup1\n  iszero\n  tag_1\n  jumpi\n  revert(0x00, 0x00)\ntag_1:\n  pop\n  dataSize(sub_0)\n  dup1\n  dataOffset(sub_0)\n  0x00\n  codecopy\n  0x00\n  return\nstop\n\nsub_0: assembly {\n        /* \"blockchain-jamlog.sol\":61:1925  contract SDRSignalLog {... */\n      mstore(0x40, 0x80)\n      callvalue\n      dup1\n      iszero\n      tag_1\n      jumpi\n      revert(0x00, 0x00)\n    tag_1:\n      pop\n      jumpi(tag_2, lt(calldatasize, 0x04))\n      shr(0xe0, calldataload(0x00))\n      dup1\n      0x87a788\n      eq\n      tag_3\n      jumpi\n      dup1\n      0x0380351a\n      eq\n      tag_4\n      jumpi\n      dup1\n      0x9e6fb472\n      eq\n      tag_5\n      jumpi\n      dup1\n      0xd5da886d\n      eq\n      tag_6\n      jumpi\n    tag_2:\n      revert(0x00, 0x00)\n        /* \"blockchain-jamlog.sol\":1762:1922  function getReading(uint256 id) external view returns (Reading memory) {... */\n    tag_3:\n      tag_7\n      0x04\n      dup1\n      calldatasize\n      sub\n      dup2\n      add\n      swap1\n      tag_8\n      swap2\n      swap1\n      tag_9\n      jump\t// in\n    tag_8:\n      tag_10\n      jump\t// in\n    tag_7:\n      mload(0x40)\n      tag_11\n      swap2\n      swap1\n      tag_12\n      jump\t// in\n    tag_11:\n      mload(0x40)\n      dup1\n      swap2\n      sub\n      swap1\n      return\n        /* \"blockchain-jamlog.sol\":768:1481  function submitReading(... */\n    tag_4:\n      tag_13\n      0x04\n      dup1\n      calldatasize\n      sub\n      dup2\n      add\n      swap1\n      tag_14\n      swap2\n      swap1\n      tag_15\n      jump\t// in\n    tag_14:\n      tag_16\n      jump\t// in\n    tag_13:\n      mload(0x40)\n      tag_17\n      swap2\n      swap1\n      tag_18\n      jump\t// in\n    tag_17:\n      mload(0x40)\n      dup1\n      swap2\n      sub\n      swap1\n      return\n        /* \"blockchain-jamlog.sol\":1591:1689  function totalReadings() external view returns (uint256) {... */\n    tag_5:\n      tag_19\n      tag_20\n      jump\t// in\n    tag_19:\n      mload(0x40)\n      tag_21\n      swap2\n      swap1\n      tag_18\n      jump\t// in\n    tag_21:\n      mload(0x40)\n      dup1\n      swap2\n      sub\n      swap1\n      return\n        /* \"blockchain-jamlog.sol\":511:536  Reading[] public readings */\n    tag_6:\n      tag_22\n      0x04\n      dup1\n      calldatasize\n      sub\n      dup2\n      add\n      swap1\n      tag_23\n      swap2\n      swap1\n      tag_9\n      jump\t// in\n    tag_23:\n      tag_24\n      jump\t// in\n    tag_22:\n      mload(0x40)\n      tag_25\n      swap7\n      swap6\n      swap5\n      swap4\n      swap3\n      swap2\n      swap1\n      tag_26\n      jump\t// in\n    tag_25:\n      mload(0x40)\n      dup1\n      swap2\n      sub\n      swap1\n      return\n        /* \"blockchain-jamlog.sol\":1762:1922  function getReading(uint256 id) external view returns (Reading memory) {... */\n    tag_10:\n        /* \"blockchain-jamlog.sol\":1817:1831  Reading memory */\n      tag_27\n      tag_28\n      jump\t// in\n    tag_27:\n        /* \"blockchain-jamlog.sol\":1853:1861  readings */\n      0x00\n        /* \"blockchain-jamlog.sol\":1853:1868  readings.length */\n      dup1\n      sload\n      swap1\n      pop\n        /* \"blockchain-jamlog.sol\":1848:1850  id */\n      dup3\n        /* \"blockchain-jamlog.sol\":1848:1868  id < readings.length */\n      lt\n        /* \"blockchain-jamlog.sol\":1840:1888  require(id < readings.length, \"ID out of range\") */\n      tag_30\n      jumpi\n      mload(0x40)\n      0x08c379a000000000000000000000000000000000000000000000000000000000\n      dup2\n      mstore\n      0x04\n      add\n      tag_31\n      swap1\n      tag_32\n      jump\t// in\n    tag_31:\n      mload(0x40)\n      dup1\n      swap2\n      sub\n      swap1\n      revert\n    tag_30:\n        /* \"blockchain-jamlog.sol\":1902:1910  readings */\n      0x00\n        /* \"blockchain-jamlog.sol\":1911:1913  id */\n      dup3\n        /* \"blockchain-jamlog.sol\":1902:1914  readings[id] */\n      dup2\n      sload\n      dup2\n      lt\n      tag_33\n      jumpi\n      tag_34\n      tag_35\n      jump\t// in\n    tag_34:\n    tag_33:\n      swap1\n      0x00\n      mstore\n      keccak256(0x00, 0x20)\n      swap1\n      0x06\n      mul\n      add\n        /* \"blockchain-jamlog.sol\":1895:1914  return readings[id] */\n      mload(0x40)\n      dup1\n      0xc0\n      add\n      0x40\n      mstore\n      swap1\n      dup2\n      0x00\n      dup3\n      add\n      0x00\n      swap1\n      sload\n      swap1\n      0x0100\n      exp\n      swap1\n      div\n      0xffffffffffffffffffffffffffffffffffffffff\n      and\n      0xffffffffffffffffffffffffffffffffffffffff\n      and\n      0xffffffffffffffffffffffffffffffffffffffff\n      and\n      dup2\n      mstore\n      0x20\n      add\n      0x01\n      dup3\n      add\n      sload\n      dup2\n      mstore\n      0x20\n      add\n      0x02\n      dup3\n      add\n      sload\n      dup2\n      mstore\n      0x20\n      add\n      0x03\n      dup3\n      add\n      0x00\n      swap1\n      sload\n      swap1\n      0x0100\n      exp\n      swap1\n      div\n      0xff\n      and\n      iszero\n      iszero\n      iszero\n      iszero\n      dup2\n      mstore\n      0x20\n      add\n      0x04\n      dup3\n      add\n      sload\n      dup2\n      mstore\n      0x20\n      add\n      0x05\n      dup3\n      add\n      sload\n      dup2\n      mstore\n      pop\n      pop\n      swap1\n      pop\n        /* \"blockchain-jamlog.sol\":1762:1922  function getReading(uint256 id) external view returns (Reading memory) {... */\n      swap2\n      swap1\n      pop\n      jump\t// out\n        /* \"blockchain-jamlog.sol\":768:1481  function submitReading(... */\n    tag_16:\n        /* \"blockchain-jamlog.sol\":914:924  uint256 id */\n      0x00\n        /* \"blockchain-jamlog.sol\":984:985  0 */\n      0x00\n        /* \"blockchain-jamlog.sol\":975:981  freqHz */\n      dup6\n        /* \"blockchain-jamlog.sol\":975:985  freqHz > 0 */\n      gt\n        /* \"blockchain-jamlog.sol\":975:1014  freqHz > 0 && freqHz <= 300_000_000_000 */\n      dup1\n      iszero\n      tag_38\n      jumpi\n      pop\n        /* \"blockchain-jamlog.sol\":999:1014  300_000_000_000 */\n      0x45d964b800\n        /* \"blockchain-jamlog.sol\":989:995  freqHz */\n      dup6\n        /* \"blockchain-jamlog.sol\":989:1014  freqHz <= 300_000_000_000 */\n      gt\n      iszero\n        /* \"blockchain-jamlog.sol\":975:1014  freqHz > 0 && freqHz <= 300_000_000_000 */\n    tag_38:\n        /* \"blockchain-jamlog.sol\":967:1036  require(freqHz > 0 && freqHz <= 300_000_000_000, \"Invalid frequency\") */\n      tag_39\n      jumpi\n      mload(0x40)\n      0x08c379a000000000000000000000000000000000000000000000000000000000\n      dup2\n      mstore\n      0x04\n      add\n      tag_40\n      swap1\n      tag_41\n      jump\t// in\n    tag_40:\n      mload(0x40)\n      dup1\n      swap2\n      sub\n      swap1\n      revert\n    tag_39:\n        /* \"blockchain-jamlog.sol\":1063:1067  -150 */\n      0xffffffffffffffffffffffffffffffffffffffffffffffffffffffffffffff6a\n        /* \"blockchain-jamlog.sol\":1055:1059  rssi */\n      dup5\n        /* \"blockchain-jamlog.sol\":1055:1067  rssi >= -150 */\n      slt\n      iszero\n        /* \"blockchain-jamlog.sol\":1055:1080  rssi >= -150 && rssi <= 0 */\n      dup1\n      iszero\n      tag_42\n      jumpi\n      pop\n        /* \"blockchain-jamlog.sol\":1079:1080  0 */\n      0x00\n        /* \"blockchain-jamlog.sol\":1071:1075  rssi */\n      dup5\n        /* \"blockchain-jamlog.sol\":1071:1080  rssi <= 0 */\n      sgt\n      iszero\n        /* \"blockchain-jamlog.sol\":1055:1080  rssi >= -150 && rssi <= 0 */\n    tag_42:\n        /* \"blockchain-jamlog.sol\":1047:1102  require(rssi >= -150 && rssi <= 0, \"RSSI out of range\") */\n      tag_43\n      jumpi\n      mload(0x40)\n      0x08c379a000000000000000000000000000000000000000000000000000000000\n      dup2\n      mstore\n      0x04\n      add\n      tag_44\n      swap1\n      tag_45\n      jump\t// in\n    tag_44:\n      mload(0x40)\n      dup1\n      swap2\n      sub\n      swap1\n      revert\n    tag_43:\n        /* \"blockchain-jamlog.sol\":1120:1128  readings */\n      0x00\n        /* \"blockchain-jamlog.sol\":1120:1135  readings.length */\n      dup1\n      sload\n      swap1\n      pop\n        /* \"blockchain-jamlog.sol\":1115:1135  id = readings.length */\n      swap1\n      pop\n        /* \"blockchain-jamlog.sol\":1146:1154  readings */\n      0x00\n        /* \"blockchain-jamlog.sol\":1160:1371  Reading({... */\n      mload(0x40)\n      dup1\n      0xc0\n      add\n      0x40\n      mstore\n      dup1\n        /* \"blockchain-jamlog.sol\":1193:1203  msg.sender */\n      caller\n        /* \"blockchain-jamlog.sol\":1160:1371  Reading({... */\n      0xffffffffffffffffffffffffffffffffffffffff\n      and\n      dup2\n      mstore\n      0x20\n      add\n        /* \"blockchain-jamlog.sol\":1226:1232  freqHz */\n      dup8\n        /* \"blockchain-jamlog.sol\":1160:1371  Reading({... */\n      dup2\n      mstore\n      0x20\n      add\n        /* \"blockchain-jamlog.sol\":1253:1257  rssi */\n      dup7\n        /* \"blockchain-jamlog.sol\":1160:1371  Reading({... */\n      dup2\n      mstore\n      0x20\n      add\n        /* \"blockchain-jamlog.sol\":1282:1290  detected */\n      dup6\n        /* \"blockchain-jamlog.sol\":1160:1371  Reading({... */\n      iszero\n      iszero\n      dup2\n      mstore\n      0x20\n      add\n        /* \"blockchain-jamlog.sol\":1311:1326  block.timestamp */\n      timestamp\n        /* \"blockchain-jamlog.sol\":1160:1371  Reading({... */\n      dup2\n      mstore\n      0x20\n      add\n        /* \"blockchain-jamlog.sol\":1351:1359  metaHash */\n      dup5\n        /* \"blockchain-jamlog.sol\":1160:1371  Reading({... */\n      dup2\n      mstore\n      pop\n        /* \"blockchain-jamlog.sol\":1146:1372  readings.push(Reading({... */\n      swap1\n      dup1\n      0x01\n      dup2\n      sload\n      add\n      dup1\n      dup3\n      sstore\n      dup1\n      swap2\n      pop\n      pop\n      0x01\n      swap1\n      sub\n      swap1\n      0x00\n      mstore\n      keccak256(0x00, 0x20)\n      swap1\n      0x06\n      mul\n      add\n      0x00\n      swap1\n      swap2\n      swap1\n      swap2\n      swap1\n      swap2\n      pop\n      0x00\n      dup3\n      add\n      mload\n      dup2\n      0x00\n      add\n      exp(0x0100, 0x00)\n      dup2\n      sload\n      dup2\n      0xffffffffffffffffffffffffffffffffffffffff\n      mul\n      not\n      and\n      swap1\n      dup4\n      0xffffffffffffffffffffffffffffffffffffffff\n      and\n      mul\n      or\n      swap1\n      sstore\n      pop\n      0x20\n      dup3\n      add\n      mload\n      dup2\n      0x01\n      add\n      sstore\n      0x40\n      dup3\n      add\n      mload\n      dup2\n      0x02\n      add\n      sstore\n      0x60\n      dup3\n      add\n      mload\n      dup2\n      0x03\n      add\n      exp(0x0100, 0x00)\n      dup2\n      sload\n      dup2\n      0xff\n      mul\n      not\n      and\n      swap1\n      dup4\n      iszero\n      iszero\n      mul\n      or\n      swap1\n      sstore\n      pop\n      0x80\n      dup3\n      add\n      mload\n      dup2\n      0x04\n      add\n      sstore\n      0xa0\n      dup3\n      add\n      mload\n      dup2\n      0x05\n      add\n      sstore\n      pop\n      pop\n        /* \"blockchain-jamlog.sol\":1411:1421  msg.sender */\n      caller\n        /* \"blockchain-jamlog.sol\":1390:1473  ReadingSubmitted(id, msg.sender, freqHz, rssi, detected, metaHash, block.timestamp) */\n      0xffffffffffffffffffffffffffffffffffffffff\n      and\n        /* \"blockchain-jamlog.sol\":1407:1409  id */\n      dup2\n        /* \"blockchain-jamlog.sol\":1390:1473  ReadingSubmitted(id, msg.sender, freqHz, rssi, detected, metaHash, block.timestamp) */\n      0x20834e328bf442f3826a680ef9cb83971d02b014cc61489afee91b4a60c23618\n        /* \"blockchain-jamlog.sol\":1423:1429  freqHz */\n      dup8\n        /* \"blockchain-jamlog.sol\":1431:1435  rssi */\n      dup8\n        /* \"blockchain-jamlog.sol\":1437:1445  detected */\n      dup8\n        /* \"blockchain-jamlog.sol\":1447:1455  metaHash */\n      dup8\n        /* \"blockchain-jamlog.sol\":1457:1472  block.timestamp */\n      timestamp\n        /* \"blockchain-jamlog.sol\":1390:1473  ReadingSubmitted(id, msg.sender, freqHz, rssi, detected, metaHash, block.timestamp) */\n      mload(0x40)\n      tag_47\n      swap6\n      swap5\n      swap4\n      swap3\n      swap2\n      swap1\n      tag_48\n      jump\t// in\n    tag_47:\n      mload(0x40)\n      dup1\n      swap2\n      sub\n      swap1\n      log3\n        /* \"blockchain-jamlog.sol\":768:1481  function submitReading(... */\n      swap5\n      swap4\n      pop\n      pop\n      pop\n      pop\n      jump\t// out\n        /* \"blockchain-jamlog.sol\":1591:1689  function totalReadings() external view returns (uint256) {... */\n    tag_20:\n        /* \"blockchain-jamlog.sol\":1639:1646  uint256 */\n      0x00\n        /* \"blockchain-jamlog.sol\":1666:1674  readings */\n      0x00\n        /* \"blockchain-jamlog.sol\":1666:1681  readings.length */\n      dup1\n      sload\n      swap1\n      pop\n        /* \"blockchain-jamlog.sol\":1659:1681  return readings.length */\n      swap1\n      pop\n        /* \"blockchain-jamlog.sol\":1591:1689  function totalReadings() external view returns (uint256) {... */\n      swap1\n      jump\t// out\n        /* \"blockchain-jamlog.sol\":511:536  Reading[] public readings */\n    tag_24:\n      0x00\n      dup2\n      dup2\n      sload\n      dup2\n      lt\n      tag_50\n      jumpi\n      0x00\n      dup1\n      revert\n    tag_50:\n      swap1\n      0x00\n      mstore\n      keccak256(0x00, 0x20)\n      swap1\n      0x06\n      mul\n      add\n      0x00\n      swap2\n      pop\n      swap1\n      pop\n      dup1\n      0x00\n      add\n      0x00\n      swap1\n      sload\n      swap1\n      0x0100\n      exp\n      swap1\n      div\n      0xffffffffffffffffffffffffffffffffffffffff\n      and\n      swap1\n      dup1\n      0x01\n      add\n      sload\n      swap1\n      dup1\n      0x02\n      add\n      sload\n      swap1\n      dup1\n      0x03\n      add\n      0x00\n      swap1\n      sload\n      swap1\n      0x0100\n      exp\n      swap1\n      div\n      0xff\n      and\n      swap1\n      dup1\n      0x04\n      add\n      sload\n      swap1\n      dup1\n      0x05\n      add\n      sload\n      swap1\n      pop\n      dup7\n      jump\t// out\n    tag_28:\n      mload(0x40)\n      dup1\n      0xc0\n      add\n      0x40\n      mstore\n      dup1\n      and(0xffffffffffffffffffffffffffffffffffffffff, 0x00)\n      dup2\n      mstore\n      0x20\n      add\n      0x00\n      dup2\n      mstore\n      0x20\n      add\n      0x00\n      dup2\n      mstore\n      0x20\n      add\n      iszero(iszero(0x00))\n      dup2\n      mstore\n      0x20\n      add\n      0x00\n      dup2\n      mstore\n      0x20\n      add\n      0x00\n      dup2\n      mstore\n      pop\n      swap1\n      jump\t// out\n        /* \"#utility.yul\":88:205   */\n    tag_53:\n        /* \"#utility.yul\":197:198   */\n      0x00\n        /* \"#utility.yul\":194:195   */\n      0x00\n        /* \"#utility.yul\":187:199   */\n      revert\n        /* \"#utility.yul\":334:411   */\n    tag_55:\n        /* \"#utility.yul\":371:378   */\n      0x00\n        /* \"#utility.yul\":400:405   */\n      dup2\n        /* \"#utility.yul\":389:405   */\n      swap1\n      pop\n        /* \"#utility.yul\":334:411   */\n      swap2\n      swap1\n      pop\n      jump\t// out\n        /* \"#utility.yul\":417:539   */\n    tag_56:\n        /* \"#utility.yul\":490:514   */\n      tag_93\n        /* \"#utility.yul\":508:513   */\n      dup2\n        /* \"#utility.yul\":490:514   */\n      tag_55\n      jump\t// in\n    tag_93:\n        /* \"#utility.yul\":483:488   */\n      dup2\n        /* \"#utility.yul\":480:515   */\n      eq\n        /* \"#utility.yul\":470:533   */\n      tag_94\n      jumpi\n        /* \"#utility.yul\":529:530   */\n      0x00\n        /* \"#utility.yul\":526:527   */\n      0x00\n        /* \"#utility.yul\":519:531   */\n      revert\n        /* \"#utility.yul\":470:533   */\n    tag_94:\n        /* \"#utility.yul\":417:539   */\n      pop\n      jump\t// out\n        /* \"#utility.yul\":545:684   */\n    tag_57:\n        /* \"#utility.yul\":591:596   */\n      0x00\n        /* \"#utility.yul\":629:635   */\n      dup2\n        /* \"#utility.yul\":616:636   */\n      calldataload\n        /* \"#utility.yul\":607:636   */\n      swap1\n      pop\n        /* \"#utility.yul\":645:678   */\n      tag_96\n        /* \"#utility.yul\":672:677   */\n      dup2\n        /* \"#utility.yul\":645:678   */\n      tag_56\n      jump\t// in\n    tag_96:\n        /* \"#utility.yul\":545:684   */\n      swap3\n      swap2\n      pop\n      pop\n      jump\t// out\n        /* \"#utility.yul\":690:1019   */\n    tag_9:\n        /* \"#utility.yul\":749:755   */\n      0x00\n        /* \"#utility.yul\":798:800   */\n      0x20\n        /* \"#utility.yul\":786:795   */\n      dup3\n        /* \"#utility.yul\":777:784   */\n      dup5\n        /* \"#utility.yul\":773:796   */\n      sub\n        /* \"#utility.yul\":769:801   */\n      slt\n        /* \"#utility.yul\":766:885   */\n      iszero\n      tag_98\n      jumpi\n        /* \"#utility.yul\":804:883   */\n      tag_99\n      tag_53\n      jump\t// in\n    tag_99:\n        /* \"#utility.yul\":766:885   */\n    tag_98:\n        /* \"#utility.yul\":924:925   */\n      0x00\n        /* \"#utility.yul\":949:1002   */\n      tag_100\n        /* \"#utility.yul\":994:1001   */\n      dup5\n        /* \"#utility.yul\":985:991   */\n      dup3\n        /* \"#utility.yul\":974:983   */\n      dup6\n        /* \"#utility.yul\":970:992   */\n      add\n        /* \"#utility.yul\":949:1002   */\n      tag_57\n      jump\t// in\n    tag_100:\n        /* \"#utility.yul\":939:1002   */\n      swap2\n      pop\n        /* \"#utility.yul\":895:1012   */\n      pop\n        /* \"#utility.yul\":690:1019   */\n      swap3\n      swap2\n      pop\n      pop\n      jump\t// out\n        /* \"#utility.yul\":1025:1151   */\n    tag_58:\n        /* \"#utility.yul\":1062:1069   */\n      0x00\n        /* \"#utility.yul\":1102:1144   */\n      0xffffffffffffffffffffffffffffffffffffffff\n        /* \"#utility.yul\":1095:1100   */\n      dup3\n        /* \"#utility.yul\":1091:1145   */\n      and\n        /* \"#utility.yul\":1080:1145   */\n      swap1\n      pop\n        /* \"#utility.yul\":1025:1151   */\n      swap2\n      swap1\n      pop\n      jump\t// out\n        /* \"#utility.yul\":1157:1253   */\n    tag_59:\n        /* \"#utility.yul\":1194:1201   */\n      0x00\n        /* \"#utility.yul\":1223:1247   */\n      tag_103\n        /* \"#utility.yul\":1241:1246   */\n      dup3\n        /* \"#utility.yul\":1223:1247   */\n      tag_58\n      jump\t// in\n    tag_103:\n        /* \"#utility.yul\":1212:1247   */\n      swap1\n      pop\n        /* \"#utility.yul\":1157:1253   */\n      swap2\n      swap1\n      pop\n      jump\t// out\n        /* \"#utility.yul\":1259:1367   */\n    tag_60:\n        /* \"#utility.yul\":1336:1360   */\n      tag_105\n        /* \"#utility.yul\":1354:1359   */\n      dup2\n        /* \"#utility.yul\":1336:1360   */\n      tag_59\n      jump\t// in\n    tag_105:\n        /* \"#utility.yul\":1331:1334   */\n      dup3\n        /* \"#utility.yul\":1324:1361   */\n      mstore\n        /* \"#utility.yul\":1259:1367   */\n      pop\n      pop\n      jump\t// out\n        /* \"#utility.yul\":1373:1481   */\n    tag_61:\n        /* \"#utility.yul\":1450:1474   */\n      tag_107\n        /* \"#utility.yul\":1468:1473   */\n      dup2\n        /* \"#utility.yul\":1450:1474   */\n      tag_55\n      jump\t// in\n    tag_107:\n        /* \"#utility.yul\":1445:1448   */\n      dup3\n        /* \"#utility.yul\":1438:1475   */\n      mstore\n        /* \"#utility.yul\":1373:1481   */\n      pop\n      pop\n      jump\t// out\n        /* \"#utility.yul\":1487:1563   */\n    tag_62:\n        /* \"#utility.yul\":1523:1530   */\n      0x00\n        /* \"#utility.yul\":1552:1557   */\n      dup2\n        /* \"#utility.yul\":1541:1557   */\n      swap1\n      pop\n        /* \"#utility.yul\":1487:1563   */\n      swap2\n      swap1\n      pop\n      jump\t// out\n        /* \"#utility.yul\":1569:1674   */\n    tag_63:\n        /* \"#utility.yul\":1644:1667   */\n      tag_110\n        /* \"#utility.yul\":1661:1666   */\n      dup2\n        /* \"#utility.yul\":1644:1667   */\n      tag_62\n      jump\t// in\n    tag_110:\n        /* \"#utility.yul\":1639:1642   */\n      dup3\n        /* \"#utility.yul\":1632:1668   */\n      mstore\n        /* \"#utility.yul\":1569:1674   */\n      pop\n      pop\n      jump\t// out\n        /* \"#utility.yul\":1680:1770   */\n    tag_64:\n        /* \"#utility.yul\":1714:1721   */\n      0x00\n        /* \"#utility.yul\":1757:1762   */\n      dup2\n        /* \"#utility.yul\":1750:1763   */\n      iszero\n        /* \"#utility.yul\":1743:1764   */\n      iszero\n        /* \"#utility.yul\":1732:1764   */\n      swap1\n      pop\n        /* \"#utility.yul\":1680:1770   */\n      swap2\n      swap1\n      pop\n      jump\t// out\n        /* \"#utility.yul\":1776:1875   */\n    tag_65:\n        /* \"#utility.yul\":1847:1868   */\n      tag_113\n        /* \"#utility.yul\":1862:1867   */\n      dup2\n        /* \"#utility.yul\":1847:1868   */\n      tag_64\n      jump\t// in\n    tag_113:\n        /* \"#utility.yul\":1842:1845   */\n      dup3\n        /* \"#utility.yul\":1835:1869   */\n      mstore\n        /* \"#utility.yul\":1776:1875   */\n      pop\n      pop\n      jump\t// out\n        /* \"#utility.yul\":1881:1958   */\n    tag_66:\n        /* \"#utility.yul\":1918:1925   */\n      0x00\n        /* \"#utility.yul\":1947:1952   */\n      dup2\n        /* \"#utility.yul\":1936:1952   */\n      swap1\n      pop\n        /* \"#utility.yul\":1881:1958   */\n      swap2\n      swap1\n      pop\n      jump\t// out\n        /* \"#utility.yul\":1964:2072   */\n    tag_67:\n        /* \"#utility.yul\":2041:2065   */\n      tag_116\n        /* \"#utility.yul\":2059:2064   */\n      dup2\n        /* \"#utility.yul\":2041:2065   */\n      tag_66\n      jump\t// in\n    tag_116:\n        /* \"#utility.yul\":2036:2039   */\n      dup3\n        /* \"#utility.yul\":2029:2066   */\n      mstore\n        /* \"#utility.yul\":1964:2072   */\n      pop\n      pop\n      jump\t// out\n        /* \"#utility.yul\":2144:3349   */\n    tag_68:\n        /* \"#utility.yul\":2287:2291   */\n      0xc0\n        /* \"#utility.yul\":2282:2285   */\n      dup3\n        /* \"#utility.yul\":2278:2292   */\n      add\n        /* \"#utility.yul\":2378:2382   */\n      0x00\n        /* \"#utility.yul\":2371:2376   */\n      dup3\n        /* \"#utility.yul\":2367:2383   */\n      add\n        /* \"#utility.yul\":2361:2384   */\n      mload\n        /* \"#utility.yul\":2397:2460   */\n      tag_118\n        /* \"#utility.yul\":2454:2458   */\n      0x00\n        /* \"#utility.yul\":2449:2452   */\n      dup6\n        /* \"#utility.yul\":2445:2459   */\n      add\n        /* \"#utility.yul\":2431:2443   */\n      dup3\n        /* \"#utility.yul\":2397:2460   */\n      tag_60\n      jump\t// in\n    tag_118:\n        /* \"#utility.yul\":2302:2470   */\n      pop\n        /* \"#utility.yul\":2554:2558   */\n      0x20\n        /* \"#utility.yul\":2547:2552   */\n      dup3\n        /* \"#utility.yul\":2543:2559   */\n      add\n        /* \"#utility.yul\":2537:2560   */\n      mload\n        /* \"#utility.yul\":2573:2636   */\n      tag_119\n        /* \"#utility.yul\":2630:2634   */\n      0x20\n        /* \"#utility.yul\":2625:2628   */\n      dup6\n        /* \"#utility.yul\":2621:2635   */\n      add\n        /* \"#utility.yul\":2607:2619   */\n      dup3\n        /* \"#utility.yul\":2573:2636   */\n      tag_61\n      jump\t// in\n    tag_119:\n        /* \"#utility.yul\":2480:2646   */\n      pop\n        /* \"#utility.yul\":2728:2732   */\n      0x40\n        /* \"#utility.yul\":2721:2726   */\n      dup3\n        /* \"#utility.yul\":2717:2733   */\n      add\n        /* \"#utility.yul\":2711:2734   */\n      mload\n        /* \"#utility.yul\":2747:2808   */\n      tag_120\n        /* \"#utility.yul\":2802:2806   */\n      0x40\n        /* \"#utility.yul\":2797:2800   */\n      dup6\n        /* \"#utility.yul\":2793:2807   */\n      add\n        /* \"#utility.yul\":2779:2791   */\n      dup3\n        /* \"#utility.yul\":2747:2808   */\n      tag_63\n      jump\t// in\n    tag_120:\n        /* \"#utility.yul\":2656:2818   */\n      pop\n        /* \"#utility.yul\":2904:2908   */\n      0x60\n        /* \"#utility.yul\":2897:2902   */\n      dup3\n        /* \"#utility.yul\":2893:2909   */\n      add\n        /* \"#utility.yul\":2887:2910   */\n      mload\n        /* \"#utility.yul\":2923:2980   */\n      tag_121\n        /* \"#utility.yul\":2974:2978   */\n      0x60\n        /* \"#utility.yul\":2969:2972   */\n      dup6\n        /* \"#utility.yul\":2965:2979   */\n      add\n        /* \"#utility.yul\":2951:2963   */\n      dup3\n        /* \"#utility.yul\":2923:2980   */\n      tag_65\n      jump\t// in\n    tag_121:\n        /* \"#utility.yul\":2828:2990   */\n      pop\n        /* \"#utility.yul\":3072:3076   */\n      0x80\n        /* \"#utility.yul\":3065:3070   */\n      dup3\n        /* \"#utility.yul\":3061:3077   */\n      add\n        /* \"#utility.yul\":3055:3078   */\n      mload\n        /* \"#utility.yul\":3091:3154   */\n      tag_122\n        /* \"#utility.yul\":3148:3152   */\n      0x80\n        /* \"#utility.yul\":3143:3146   */\n      dup6\n        /* \"#utility.yul\":3139:3153   */\n      add\n        /* \"#utility.yul\":3125:3137   */\n      dup3\n        /* \"#utility.yul\":3091:3154   */\n      tag_61\n      jump\t// in\n    tag_122:\n        /* \"#utility.yul\":3000:3164   */\n      pop\n        /* \"#utility.yul\":3250:3254   */\n      0xa0\n        /* \"#utility.yul\":3243:3248   */\n      dup3\n        /* \"#utility.yul\":3239:3255   */\n      add\n        /* \"#utility.yul\":3233:3256   */\n      mload\n        /* \"#utility.yul\":3269:3332   */\n      tag_123\n        /* \"#utility.yul\":3326:3330   */\n      0xa0\n        /* \"#utility.yul\":3321:3324   */\n      dup6\n        /* \"#utility.yul\":3317:3331   */\n      add\n        /* \"#utility.yul\":3303:3315   */\n      dup3\n        /* \"#utility.yul\":3269:3332   */\n      tag_67\n      jump\t// in\n    tag_123:\n        /* \"#utility.yul\":3174:3342   */\n      pop\n        /* \"#utility.yul\":2256:3349   */\n      pop\n        /* \"#utility.yul\":2144:3349   */\n      pop\n      pop\n      jump\t// out\n        /* \"#utility.yul\":3355:3670   */\n    tag_12:\n        /* \"#utility.yul\":3494:3498   */\n      0x00\n        /* \"#utility.yul\":3532:3535   */\n      0xc0\n        /* \"#utility.yul\":3521:3530   */\n      dup3\n        /* \"#utility.yul\":3517:3536   */\n      add\n        /* \"#utility.yul\":3509:3536   */\n      swap1\n      pop\n        /* \"#utility.yul\":3546:3663   */\n      tag_125\n        /* \"#utility.yul\":3660:3661   */\n      0x00\n        /* \"#utility.yul\":3649:3658   */\n      dup4\n        /* \"#utility.yul\":3645:3662   */\n      add\n        /* \"#utility.yul\":3636:3642   */\n      dup5\n        /* \"#utility.yul\":3546:3663   */\n      tag_68\n      jump\t// in\n    tag_125:\n        /* \"#utility.yul\":3355:3670   */\n      swap3\n      swap2\n      pop\n      pop\n      jump\t// out\n        /* \"#utility.yul\":3676:3796   */\n    tag_69:\n        /* \"#utility.yul\":3748:3771   */\n      tag_127\n        /* \"#utility.yul\":3765:3770   */\n      dup2\n        /* \"#utility.yul\":3748:3771   */\n      tag_62\n      jump\t// in\n    tag_127:\n        /* \"#utility.yul\":3741:3746   */\n      dup2\n        /* \"#utility.yul\":3738:3772   */\n      eq\n        /* \"#utility.yul\":3728:3790   */\n      tag_128\n      jumpi\n        /* \"#utility.yul\":3786:3787   */\n      0x00\n        /* \"#utility.yul\":3783:3784   */\n      0x00\n        /* \"#utility.yul\":3776:3788   */\n      revert\n        /* \"#utility.yul\":3728:3790   */\n    tag_128:\n        /* \"#utility.yul\":3676:3796   */\n      pop\n      jump\t// out\n        /* \"#utility.yul\":3802:3939   */\n    tag_70:\n        /* \"#utility.yul\":3847:3852   */\n      0x00\n        /* \"#utility.yul\":3885:3891   */\n      dup2\n        /* \"#utility.yul\":3872:3892   */\n      calldataload\n        /* \"#utility.yul\":3863:3892   */\n      swap1\n      pop\n        /* \"#utility.yul\":3901:3933   */\n      tag_130\n        /* \"#utility.yul\":3927:3932   */\n      dup2\n        /* \"#utility.yul\":3901:3933   */\n      tag_69\n      jump\t// in\n    tag_130:\n        /* \"#utility.yul\":3802:3939   */\n      swap3\n      swap2\n      pop\n      pop\n      jump\t// out\n        /* \"#utility.yul\":3945:4061   */\n    tag_71:\n        /* \"#utility.yul\":4015:4036   */\n      tag_132\n        /* \"#utility.yul\":4030:4035   */\n      dup2\n        /* \"#utility.yul\":4015:4036   */\n      tag_64\n      jump\t// in\n    tag_132:\n        /* \"#utility.yul\":4008:4013   */\n      dup2\n        /* \"#utility.yul\":4005:4037   */\n      eq\n        /* \"#utility.yul\":3995:4055   */\n      tag_133\n      jumpi\n        /* \"#utility.yul\":4051:4052   */\n      0x00\n        /* \"#utility.yul\":4048:4049   */\n      0x00\n        /* \"#utility.yul\":4041:4053   */\n      revert\n        /* \"#utility.yul\":3995:4055   */\n    tag_133:\n        /* \"#utility.yul\":3945:4061   */\n      pop\n      jump\t// out\n        /* \"#utility.yul\":4067:4200   */\n    tag_72:\n        /* \"#utility.yul\":4110:4115   */\n      0x00\n        /* \"#utility.yul\":4148:4154   */\n      dup2\n        /* \"#utility.yul\":4135:4155   */\n      calldataload\n        /* \"#utility.yul\":4126:4155   */\n      swap1\n      pop\n        /* \"#utility.yul\":4164:4194   */\n      tag_135\n        /* \"#utility.yul\":4188:4193   */\n      dup2\n        /* \"#utility.yul\":4164:4194   */\n      tag_71\n      jump\t// in\n    tag_135:\n        /* \"#utility.yul\":4067:4200   */\n      swap3\n      swap2\n      pop\n      pop\n      jump\t// out\n        /* \"#utility.yul\":4206:4328   */\n    tag_73:\n        /* \"#utility.yul\":4279:4303   */\n      tag_137\n        /* \"#utility.yul\":4297:4302   */\n      dup2\n        /* \"#utility.yul\":4279:4303   */\n      tag_66\n      jump\t// in\n    tag_137:\n        /* \"#utility.yul\":4272:4277   */\n      dup2\n        /* \"#utility.yul\":4269:4304   */\n      eq\n        /* \"#utility.yul\":4259:4322   */\n      tag_138\n      jumpi\n        /* \"#utility.yul\":4318:4319   */\n      0x00\n        /* \"#utility.yul\":4315:4316   */\n      0x00\n        /* \"#utility.yul\":4308:4320   */\n      revert\n        /* \"#utility.yul\":4259:4322   */\n    tag_138:\n        /* \"#utility.yul\":4206:4328   */\n      pop\n      jump\t// out\n        /* \"#utility.yul\":4334:4473   */\n    tag_74:\n        /* \"#utility.yul\":4380:4385   */\n      0x00\n        /* \"#utility.yul\":4418:4424   */\n      dup2\n        /* \"#utility.yul\":4405:4425   */\n      calldataload\n        /* \"#utility.yul\":4396:4425   */\n      swap1\n      pop\n        /* \"#utility.yul\":4434:4467   */\n      tag_140\n        /* \"#utility.yul\":4461:4466   */\n      dup2\n        /* \"#utility.yul\":4434:4467   */\n      tag_73\n      jump\t// in\n    tag_140:\n        /* \"#utility.yul\":4334:4473   */\n      swap3\n      swap2\n      pop\n      pop\n      jump\t// out\n        /* \"#utility.yul\":4479:5236   */\n    tag_15:\n        /* \"#utility.yul\":4561:4567   */\n      0x00\n        /* \"#utility.yul\":4569:4575   */\n      0x00\n        /* \"#utility.yul\":4577:4583   */\n      0x00\n        /* \"#utility.yul\":4585:4591   */\n      0x00\n        /* \"#utility.yul\":4634:4637   */\n      0x80\n        /* \"#utility.yul\":4622:4631   */\n      dup6\n        /* \"#utility.yul\":4613:4620   */\n      dup8\n        /* \"#utility.yul\":4609:4632   */\n      sub\n        /* \"#utility.yul\":4605:4638   */\n      slt\n        /* \"#utility.yul\":4602:4722   */\n      iszero\n      tag_142\n      jumpi\n        /* \"#utility.yul\":4641:4720   */\n      tag_143\n      tag_53\n      jump\t// in\n    tag_143:\n        /* \"#utility.yul\":4602:4722   */\n    tag_142:\n        /* \"#utility.yul\":4761:4762   */\n      0x00\n        /* \"#utility.yul\":4786:4839   */\n      tag_144\n        /* \"#utility.yul\":4831:4838   */\n      dup8\n        /* \"#utility.yul\":4822:4828   */\n      dup3\n        /* \"#utility.yul\":4811:4820   */\n      dup9\n        /* \"#utility.yul\":4807:4829   */\n      add\n        /* \"#utility.yul\":4786:4839   */\n      tag_57\n      jump\t// in\n    tag_144:\n        /* \"#utility.yul\":4776:4839   */\n      swap5\n      pop\n        /* \"#utility.yul\":4732:4849   */\n      pop\n        /* \"#utility.yul\":4888:4890   */\n      0x20\n        /* \"#utility.yul\":4914:4966   */\n      tag_145\n        /* \"#utility.yul\":4958:4965   */\n      dup8\n        /* \"#utility.yul\":4949:4955   */\n      dup3\n        /* \"#utility.yul\":4938:4947   */\n      dup9\n        /* \"#utility.yul\":4934:4956   */\n      add\n        /* \"#utility.yul\":4914:4966   */\n      tag_70\n      jump\t// in\n    tag_145:\n        /* \"#utility.yul\":4904:4966   */\n      swap4\n      pop\n        /* \"#utility.yul\":4859:4976   */\n      pop\n        /* \"#utility.yul\":5015:5017   */\n      0x40\n        /* \"#utility.yul\":5041:5091   */\n      tag_146\n        /* \"#utility.yul\":5083:5090   */\n      dup8\n        /* \"#utility.yul\":5074:5080   */\n      dup3\n        /* \"#utility.yul\":5063:5072   */\n      dup9\n        /* \"#utility.yul\":5059:5081   */\n      add\n        /* \"#utility.yul\":5041:5091   */\n      tag_72\n      jump\t// in\n    tag_146:\n        /* \"#utility.yul\":5031:5091   */\n      swap3\n      pop\n        /* \"#utility.yul\":4986:5101   */\n      pop\n        /* \"#utility.yul\":5140:5142   */\n      0x60\n        /* \"#utility.yul\":5166:5219   */\n      tag_147\n        /* \"#utility.yul\":5211:5218   */\n      dup8\n        /* \"#utility.yul\":5202:5208   */\n      dup3\n        /* \"#utility.yul\":5191:5200   */\n      dup9\n        /* \"#utility.yul\":5187:5209   */\n      add\n        /* \"#utility.yul\":5166:5219   */\n      tag_74\n      jump\t// in\n    tag_147:\n        /* \"#utility.yul\":5156:5219   */\n      swap2\n      pop\n        /* \"#utility.yul\":5111:5229   */\n      pop\n        /* \"#utility.yul\":4479:5236   */\n      swap3\n      swap6\n      swap2\n      swap5\n      pop\n      swap3\n      pop\n      jump\t// out\n        /* \"#utility.yul\":5242:5360   */\n    tag_75:\n        /* \"#utility.yul\":5329:5353   */\n      tag_149\n        /* \"#utility.yul\":5347:5352   */\n      dup2\n        /* \"#utility.yul\":5329:5353   */\n      tag_55\n      jump\t// in\n    tag_149:\n        /* \"#utility.yul\":5324:5327   */\n      dup3\n        /* \"#utility.yul\":5317:5354   */\n      mstore\n        /* \"#utility.yul\":5242:5360   */\n      pop\n      pop\n      jump\t// out\n        /* \"#utility.yul\":5366:5588   */\n    tag_18:\n        /* \"#utility.yul\":5459:5463   */\n      0x00\n        /* \"#utility.yul\":5497:5499   */\n      0x20\n        /* \"#utility.yul\":5486:5495   */\n      dup3\n        /* \"#utility.yul\":5482:5500   */\n      add\n        /* \"#utility.yul\":5474:5500   */\n      swap1\n      pop\n        /* \"#utility.yul\":5510:5581   */\n      tag_151\n        /* \"#utility.yul\":5578:5579   */\n      0x00\n        /* \"#utility.yul\":5567:5576   */\n      dup4\n        /* \"#utility.yul\":5563:5580   */\n      add\n        /* \"#utility.yul\":5554:5560   */\n      dup5\n        /* \"#utility.yul\":5510:5581   */\n      tag_75\n      jump\t// in\n    tag_151:\n        /* \"#utility.yul\":5366:5588   */\n      swap3\n      swap2\n      pop\n      pop\n      jump\t// out\n        /* \"#utility.yul\":5594:5712   */\n    tag_76:\n        /* \"#utility.yul\":5681:5705   */\n      tag_153\n        /* \"#utility.yul\":5699:5704   */\n      dup2\n        /* \"#utility.yul\":5681:5705   */\n      tag_59\n      jump\t// in\n    tag_153:\n        /* \"#utility.yul\":5676:5679   */\n      dup3\n        /* \"#utility.yul\":5669:5706   */\n      mstore\n        /* \"#utility.yul\":5594:5712   */\n      pop\n      pop\n      jump\t// out\n        /* \"#utility.yul\":5718:5833   */\n    tag_77:\n        /* \"#utility.yul\":5803:5826   */\n      tag_155\n        /* \"#utility.yul\":5820:5825   */\n      dup2\n        /* \"#utility.yul\":5803:5826   */\n      tag_62\n      jump\t// in\n    tag_155:\n        /* \"#utility.yul\":5798:5801   */\n      dup3\n        /* \"#utility.yul\":5791:5827   */\n      mstore\n        /* \"#utility.yul\":5718:5833   */\n      pop\n      pop\n      jump\t// out\n        /* \"#utility.yul\":5839:5948   */\n    tag_78:\n        /* \"#utility.yul\":5920:5941   */\n      tag_157\n        /* \"#utility.yul\":5935:5940   */\n      dup2\n        /* \"#utility.yul\":5920:5941   */\n      tag_64\n      jump\t// in\n    tag_157:\n        /* \"#utility.yul\":5915:5918   */\n      dup3\n        /* \"#utility.yul\":5908:5942   */\n      mstore\n        /* \"#utility.yul\":5839:5948   */\n      pop\n      pop\n      jump\t// out\n        /* \"#utility.yul\":5954:6072   */\n    tag_79:\n        /* \"#utility.yul\":6041:6065   */\n      tag_159\n        /* \"#utility.yul\":6059:6064   */\n      dup2\n        /* \"#utility.yul\":6041:6065   */\n      tag_66\n      jump\t// in\n    tag_159:\n        /* \"#utility.yul\":6036:6039   */\n      dup3\n        /* \"#utility.yul\":6029:6066   */\n      mstore\n        /* \"#utility.yul\":5954:6072   */\n      pop\n      pop\n      jump\t// out\n        /* \"#utility.yul\":6078:6837   */\n    tag_26:\n        /* \"#utility.yul\":6303:6307   */\n      0x00\n        /* \"#utility.yul\":6341:6344   */\n      0xc0\n        /* \"#utility.yul\":6330:6339   */\n      dup3\n        /* \"#utility.yul\":6326:6345   */\n      add\n        /* \"#utility.yul\":6318:6345   */\n      swap1\n      pop\n        /* \"#utility.yul\":6355:6426   */\n      tag_161\n        /* \"#utility.yul\":6423:6424   */\n      0x00\n        /* \"#utility.yul\":6412:6421   */\n      dup4\n        /* \"#utility.yul\":6408:6425   */\n      add\n        /* \"#utility.yul\":6399:6405   */\n      dup10\n        /* \"#utility.yul\":6355:6426   */\n      tag_76\n      jump\t// in\n    tag_161:\n        /* \"#utility.yul\":6436:6508   */\n      tag_162\n        /* \"#utility.yul\":6504:6506   */\n      0x20\n        /* \"#utility.yul\":6493:6502   */\n      dup4\n        /* \"#utility.yul\":6489:6507   */\n      add\n        /* \"#utility.yul\":6480:6486   */\n      dup9\n        /* \"#utility.yul\":6436:6508   */\n      tag_75\n      jump\t// in\n    tag_162:\n        /* \"#utility.yul\":6518:6588   */\n      tag_163\n        /* \"#utility.yul\":6584:6586   */\n      0x40\n        /* \"#utility.yul\":6573:6582   */\n      dup4\n        /* \"#utility.yul\":6569:6587   */\n      add\n        /* \"#utility.yul\":6560:6566   */\n      dup8\n        /* \"#utility.yul\":6518:6588   */\n      tag_77\n      jump\t// in\n    tag_163:\n        /* \"#utility.yul\":6598:6664   */\n      tag_164\n        /* \"#utility.yul\":6660:6662   */\n      0x60\n        /* \"#utility.yul\":6649:6658   */\n      dup4\n        /* \"#utility.yul\":6645:6663   */\n      add\n        /* \"#utility.yul\":6636:6642   */\n      dup7\n        /* \"#utility.yul\":6598:6664   */\n      tag_78\n      jump\t// in\n    tag_164:\n        /* \"#utility.yul\":6674:6747   */\n      tag_165\n        /* \"#utility.yul\":6742:6745   */\n      0x80\n        /* \"#utility.yul\":6731:6740   */\n      dup4\n        /* \"#utility.yul\":6727:6746   */\n      add\n        /* \"#utility.yul\":6718:6724   */\n      dup6\n        /* \"#utility.yul\":6674:6747   */\n      tag_75\n      jump\t// in\n    tag_165:\n        /* \"#utility.yul\":6757:6830   */\n      tag_166\n        /* \"#utility.yul\":6825:6828   */\n      0xa0\n        /* \"#utility.yul\":6814:6823   */\n      dup4\n        /* \"#utility.yul\":6810:6829   */\n      add\n        /* \"#utility.yul\":6801:6807   */\n      dup5\n        /* \"#utility.yul\":6757:6830   */\n      tag_79\n      jump\t// in\n    tag_166:\n        /* \"#utility.yul\":6078:6837   */\n      swap8\n      swap7\n      pop\n      pop\n      pop\n      pop\n      pop\n      pop\n      pop\n      jump\t// out\n        /* \"#utility.yul\":6843:7012   */\n    tag_80:\n        /* \"#utility.yul\":6927:6938   */\n      0x00\n        /* \"#utility.yul\":6961:6967   */\n      dup3\n        /* \"#utility.yul\":6956:6959   */\n      dup3\n        /* \"#utility.yul\":6949:6968   */\n      mstore\n        /* \"#utility.yul\":7001:7005   */\n      0x20\n        /* \"#utility.yul\":6996:6999   */\n      dup3\n        /* \"#utility.yul\":6992:7006   */\n      add\n        /* \"#utility.yul\":6977:7006   */\n      swap1\n      pop\n        /* \"#utility.yul\":6843:7012   */\n      swap3\n      swap2\n      pop\n      pop\n      jump\t// out\n        /* \"#utility.yul\":7018:7183   */\n    tag_81:\n        /* \"#utility.yul\":7158:7175   */\n      0x4944206f7574206f662072616e67650000000000000000000000000000000000\n        /* \"#utility.yul\":7154:7155   */\n      0x00\n        /* \"#utility.yul\":7146:7152   */\n      dup3\n        /* \"#utility.yul\":7142:7156   */\n      add\n        /* \"#utility.yul\":7135:7176   */\n      mstore\n        /* \"#utility.yul\":7018:7183   */\n      pop\n      jump\t// out\n        /* \"#utility.yul\":7189:7555   */\n    tag_82:\n        /* \"#utility.yul\":7331:7334   */\n      0x00\n        /* \"#utility.yul\":7352:7419   */\n      tag_170\n        /* \"#utility.yul\":7416:7418   */\n      0x0f\n        /* \"#utility.yul\":7411:7414   */\n      dup4\n        /* \"#utility.yul\":7352:7419   */\n      tag_80\n      jump\t// in\n    tag_170:\n        /* \"#utility.yul\":7345:7419   */\n      swap2\n      pop\n        /* \"#utility.yul\":7428:7521   */\n      tag_171\n        /* \"#utility.yul\":7517:7520   */\n      dup3\n        /* \"#utility.yul\":7428:7521   */\n      tag_81\n      jump\t// in\n    tag_171:\n        /* \"#utility.yul\":7546:7548   */\n      0x20\n        /* \"#utility.yul\":7541:7544   */\n      dup3\n        /* \"#utility.yul\":7537:7549   */\n      add\n        /* \"#utility.yul\":7530:7549   */\n      swap1\n      pop\n        /* \"#utility.yul\":7189:7555   */\n      swap2\n      swap1\n      pop\n      jump\t// out\n        /* \"#utility.yul\":7561:7980   */\n    tag_32:\n        /* \"#utility.yul\":7727:7731   */\n      0x00\n        /* \"#utility.yul\":7765:7767   */\n      0x20\n        /* \"#utility.yul\":7754:7763   */\n      dup3\n        /* \"#utility.yul\":7750:7768   */\n      add\n        /* \"#utility.yul\":7742:7768   */\n      swap1\n      pop\n        /* \"#utility.yul\":7814:7823   */\n      dup2\n        /* \"#utility.yul\":7808:7812   */\n      dup2\n        /* \"#utility.yul\":7804:7824   */\n      sub\n        /* \"#utility.yul\":7800:7801   */\n      0x00\n        /* \"#utility.yul\":7789:7798   */\n      dup4\n        /* \"#utility.yul\":7785:7802   */\n      add\n        /* \"#utility.yul\":7778:7825   */\n      mstore\n        /* \"#utility.yul\":7842:7973   */\n      tag_173\n        /* \"#utility.yul\":7968:7972   */\n      dup2\n        /* \"#utility.yul\":7842:7973   */\n      tag_82\n      jump\t// in\n    tag_173:\n        /* \"#utility.yul\":7834:7973   */\n      swap1\n      pop\n        /* \"#utility.yul\":7561:7980   */\n      swap2\n      swap1\n      pop\n      jump\t// out\n        /* \"#utility.yul\":7986:8166   */\n    tag_35:\n        /* \"#utility.yul\":8034:8111   */\n      0x4e487b7100000000000000000000000000000000000000000000000000000000\n        /* \"#utility.yul\":8031:8032   */\n      0x00\n        /* \"#utility.yul\":8024:8112   */\n      mstore\n        /* \"#utility.yul\":8131:8135   */\n      0x32\n        /* \"#utility.yul\":8128:8129   */\n      0x04\n        /* \"#utility.yul\":8121:8136   */\n      mstore\n        /* \"#utility.yul\":8155:8159   */\n      0x24\n        /* \"#utility.yul\":8152:8153   */\n      0x00\n        /* \"#utility.yul\":8145:8160   */\n      revert\n        /* \"#utility.yul\":8172:8339   */\n    tag_83:\n        /* \"#utility.yul\":8312:8331   */\n      0x496e76616c6964206672657175656e6379000000000000000000000000000000\n        /* \"#utility.yul\":8308:8309   */\n      0x00\n        /* \"#utility.yul\":8300:8306   */\n      dup3\n        /* \"#utility.yul\":8296:8310   */\n      add\n        /* \"#utility.yul\":8289:8332   */\n      mstore\n        /* \"#utility.yul\":8172:8339   */\n      pop\n      jump\t// out\n        /* \"#utility.yul\":8345:8711   */\n    tag_84:\n        /* \"#utility.yul\":8487:8490   */\n      0x00\n        /* \"#utility.yul\":8508:8575   */\n      tag_177\n        /* \"#utility.yul\":8572:8574   */\n      0x11\n        /* \"#utility.yul\":8567:8570   */\n      dup4\n        /* \"#utility.yul\":8508:8575   */\n      tag_80\n      jump\t// in\n    tag_177:\n        /* \"#utility.yul\":8501:8575   */\n      swap2\n      pop\n        /* \"#utility.yul\":8584:8677   */\n      tag_178\n        /* \"#utility.yul\":8673:8676   */\n      dup3\n        /* \"#utility.yul\":8584:8677   */\n      tag_83\n      jump\t// in\n    tag_178:\n        /* \"#utility.yul\":8702:8704   */\n      0x20\n        /* \"#utility.yul\":8697:8700   */\n      dup3\n        /* \"#utility.yul\":8693:8705   */\n      add\n        /* \"#utility.yul\":8686:8705   */\n      swap1\n      pop\n        /* \"#utility.yul\":8345:8711   */\n      swap2\n      swap1\n      pop\n      jump\t// out\n        /* \"#utility.yul\":8717:9136   */\n    tag_41:\n        /* \"#utility.yul\":8883:8887   */\n      0x00\n        /* \"#utility.yul\":8921:8923   */\n      0x20\n        /* \"#utility.yul\":8910:8919   */\n      dup3\n        /* \"#utility.yul\":8906:8924   */\n      add\n        /* \"#utility.yul\":8898:8924   */\n      swap1\n      pop\n        /* \"#utility.yul\":8970:8979   */\n      dup2\n        /* \"#utility.yul\":8964:8968   */\n      dup2\n        /* \"#utility.yul\":8960:8980   */\n      sub\n        /* \"#utility.yul\":8956:8957   */\n      0x00\n        /* \"#utility.yul\":8945:8954   */\n      dup4\n        /* \"#utility.yul\":8941:8958   */\n      add\n        /* \"#utility.yul\":8934:8981   */\n      mstore\n        /* \"#utility.yul\":8998:9129   */\n      tag_180\n        /* \"#utility.yul\":9124:9128   */\n      dup2\n        /* \"#utility.yul\":8998:9129   */\n      tag_84\n      jump\t// in\n    tag_180:\n        /* \"#utility.yul\":8990:9129   */\n      swap1\n      pop\n        /* \"#utility.yul\":8717:9136   */\n      swap2\n      swap1\n      pop\n      jump\t// out\n        /* \"#utility.yul\":9142:9309   */\n    tag_85:\n        /* \"#utility.yul\":9282:9301   */\n      0x52535349206f7574206f662072616e6765000000000000000000000000000000\n        /* \"#utility.yul\":9278:9279   */\n      0x00\n        /* \"#utility.yul\":9270:9276   */\n      dup3\n        /* \"#utility.yul\":9266:9280   */\n      add\n        /* \"#utility.yul\":9259:9302   */\n      mstore\n        /* \"#utility.yul\":9142:9309   */\n      pop\n      jump\t// out\n        /* \"#utility.yul\":9315:9681   */\n    tag_86:\n        /* \"#utility.yul\":9457:9460   */\n      0x00\n        /* \"#utility.yul\":9478:9545   */\n      tag_183\n        /* \"#utility.yul\":9542:9544   */\n      0x11\n        /* \"#utility.yul\":9537:9540   */\n      dup4\n        /* \"#utility.yul\":9478:9545   */\n      tag_80\n      jump\t// in\n    tag_183:\n        /* \"#utility.yul\":9471:9545   */\n      swap2\n      pop\n        /* \"#utility.yul\":9554:9647   */\n      tag_184\n        /* \"#utility.yul\":9643:9646   */\n      dup3\n        /* \"#utility.yul\":9554:9647   */\n      tag_85\n      jump\t// in\n    tag_184:\n        /* \"#utility.yul\":9672:9674   */\n      0x20\n        /* \"#utility.yul\":9667:9670   */\n      dup3\n        /* \"#utility.yul\":9663:9675   */\n      add\n        /* \"#utility.yul\":9656:9675   */\n      swap1\n      pop\n        /* \"#utility.yul\":9315:9681   */\n      swap2\n      swap1\n      pop\n      jump\t// out\n        /* \"#utility.yul\":9687:10106   */\n    tag_45:\n        /* \"#utility.yul\":9853:9857   */\n      0x00\n        /* \"#utility.yul\":9891:9893   */\n      0x20\n        /* \"#utility.yul\":9880:9889   */\n      dup3\n        /* \"#utility.yul\":9876:9894   */\n      add\n        /* \"#utility.yul\":9868:9894   */\n      swap1\n      pop\n        /* \"#utility.yul\":9940:9949   */\n      dup2\n        /* \"#utility.yul\":9934:9938   */\n      dup2\n        /* \"#utility.yul\":9930:9950   */\n      sub\n        /* \"#utility.yul\":9926:9927   */\n      0x00\n        /* \"#utility.yul\":9915:9924   */\n      dup4\n        /* \"#utility.yul\":9911:9928   */\n      add\n        /* \"#utility.yul\":9904:9951   */\n      mstore\n        /* \"#utility.yul\":9968:10099   */\n      tag_186\n        /* \"#utility.yul\":10094:10098   */\n      dup2\n        /* \"#utility.yul\":9968:10099   */\n      tag_86\n      jump\t// in\n    tag_186:\n        /* \"#utility.yul\":9960:10099   */\n      swap1\n      pop\n        /* \"#utility.yul\":9687:10106   */\n      swap2\n      swap1\n      pop\n      jump\t// out\n        /* \"#utility.yul\":10112:10760   */\n    tag_48:\n        /* \"#utility.yul\":10309:10313   */\n      0x00\n        /* \"#utility.yul\":10347:10350   */\n      0xa0\n        /* \"#utility.yul\":10336:10345   */\n      dup3\n        /* \"#utility.yul\":10332:10351   */\n      add\n        /* \"#utility.yul\":10324:10351   */\n      swap1\n      pop\n        /* \"#utility.yul\":10361:10432   */\n      tag_188\n        /* \"#utility.yul\":10429:10430   */\n      0x00\n        /* \"#utility.yul\":10418:10427   */\n      dup4\n        /* \"#utility.yul\":10414:10431   */\n      add\n        /* \"#utility.yul\":10405:10411   */\n      dup9\n        /* \"#utility.yul\":10361:10432   */\n      tag_75\n      jump\t// in\n    tag_188:\n        /* \"#utility.yul\":10442:10512   */\n      tag_189\n        /* \"#utility.yul\":10508:10510   */\n      0x20\n        /* \"#utility.yul\":10497:10506   */\n      dup4\n        /* \"#utility.yul\":10493:10511   */\n      add\n        /* \"#utility.yul\":10484:10490   */\n      dup8\n        /* \"#utility.yul\":10442:10512   */\n      tag_77\n      jump\t// in\n    tag_189:\n        /* \"#utility.yul\":10522:10588   */\n      tag_190\n        /* \"#utility.yul\":10584:10586   */\n      0x40\n        /* \"#utility.yul\":10573:10582   */\n      dup4\n        /* \"#utility.yul\":10569:10587   */\n      add\n        /* \"#utility.yul\":10560:10566   */\n      dup7\n        /* \"#utility.yul\":10522:10588   */\n      tag_78\n      jump\t// in\n    tag_190:\n        /* \"#utility.yul\":10598:10670   */\n      tag_191\n        /* \"#utility.yul\":10666:10668   */\n      0x60\n        /* \"#utility.yul\":10655:10664   */\n      dup4\n        /* \"#utility.yul\":10651:10669   */\n      add\n        /* \"#utility.yul\":10642:10648   */\n      dup6\n        /* \"#utility.yul\":10598:10670   */\n      tag_79\n      jump\t// in\n    tag_191:\n        /* \"#utility.yul\":10680:10753   */\n      tag_192\n        /* \"#utility.yul\":10748:10751   */\n      0x80\n        /* \"#utility.yul\":10737:10746   */\n      dup4\n        /* \"#utility.yul\":10733:10752   */\n      add\n        /* \"#utility.yul\":10724:10730   */\n      dup5\n        /* \"#utility.yul\":10680:10753   */\n      tag_75\n      jump\t// in\n    tag_192:\n        /* \"#utility.yul\":10112:10760   */\n      swap7\n      swap6\n      pop\n      pop\n      pop\n      pop\n      pop\n      pop\n      jump\t// out\n\n    auxdata: 0xa2646970667358221220e530075b9b22129efc93bbd5ac8a6156400bd031b2a74bc29ae249143d1e815764736f6c634300081f0033\n}\n",
				"bytecode": {
					"linkReferences": {},
					"object": "6080604052348015600e575f5ffd5b50610a288061001c5f395ff3fe608060405234801561000f575f5ffd5b5060043610610049575f3560e01c806287a7881461004d5780630380351a1461007d5780639e6fb472146100ad578063d5da886d146100cb575b5f5ffd5b61006760048036038101906100629190610532565b610100565b604051610074919061066e565b60405180910390f35b61009760048036038101906100929190610705565b610215565b6040516100a49190610778565b60405180910390f35b6100b5610437565b6040516100c29190610778565b60405180910390f35b6100e560048036038101906100e09190610532565b610442565b6040516100f7969594939291906107cd565b60405180910390f35b6101086104b3565b5f80549050821061014e576040517f08c379a000000000000000000000000000000000000000000000000000000000815260040161014590610886565b60405180910390fd5b5f8281548110610161576101606108a4565b5b905f5260205f2090600602016040518060c00160405290815f82015f9054906101000a900473ffffffffffffffffffffffffffffffffffffffff1673ffffffffffffffffffffffffffffffffffffffff1673ffffffffffffffffffffffffffffffffffffffff1681526020016001820154815260200160028201548152602001600382015f9054906101000a900460ff16151515158152602001600482015481526020016005820154815250509050919050565b5f5f8511801561022a57506445d964b8008511155b610269576040517f08c379a00000000000000000000000000000000000000000000000000000000081526004016102609061091b565b60405180910390fd5b7fffffffffffffffffffffffffffffffffffffffffffffffffffffffffffffff6a841215801561029957505f8413155b6102d8576040517f08c379a00000000000000000000000000000000000000000000000000000000081526004016102cf90610983565b60405180910390fd5b5f8054905090505f6040518060c001604052803373ffffffffffffffffffffffffffffffffffffffff168152602001878152602001868152602001851515815260200142815260200184815250908060018154018082558091505060019003905f5260205f2090600602015f909190919091505f820151815f015f6101000a81548173ffffffffffffffffffffffffffffffffffffffff021916908373ffffffffffffffffffffffffffffffffffffffff16021790555060208201518160010155604082015181600201556060820151816003015f6101000a81548160ff0219169083151502179055506080820151816004015560a0820151816005015550503373ffffffffffffffffffffffffffffffffffffffff16817f20834e328bf442f3826a680ef9cb83971d02b014cc61489afee91b4a60c2361887878787426040516104279594939291906109a1565b60405180910390a3949350505050565b5f5f80549050905090565b5f8181548110610450575f80fd5b905f5260205f2090600602015f91509050805f015f9054906101000a900473ffffffffffffffffffffffffffffffffffffffff1690806001015490806002015490806003015f9054906101000a900460ff16908060040154908060050154905086565b6040518060c001604052805f73ffffffffffffffffffffffffffffffffffffffff1681526020015f81526020015f81526020015f151581526020015f81526020015f81525090565b5f5ffd5b5f819050919050565b610511816104ff565b811461051b575f5ffd5b50565b5f8135905061052c81610508565b92915050565b5f60208284031215610547576105466104fb565b5b5f6105548482850161051e565b91505092915050565b5f73ffffffffffffffffffffffffffffffffffffffff82169050919050565b5f6105868261055d565b9050919050565b6105968161057c565b82525050565b6105a5816104ff565b82525050565b5f819050919050565b6105bd816105ab565b82525050565b5f8115159050919050565b6105d7816105c3565b82525050565b5f819050919050565b6105ef816105dd565b82525050565b60c082015f8201516106095f85018261058d565b50602082015161061c602085018261059c565b50604082015161062f60408501826105b4565b50606082015161064260608501826105ce565b506080820151610655608085018261059c565b5060a082015161066860a08501826105e6565b50505050565b5f60c0820190506106815f8301846105f5565b92915050565b610690816105ab565b811461069a575f5ffd5b50565b5f813590506106ab81610687565b92915050565b6106ba816105c3565b81146106c4575f5ffd5b50565b5f813590506106d5816106b1565b92915050565b6106e4816105dd565b81146106ee575f5ffd5b50565b5f813590506106ff816106db565b92915050565b5f5f5f5f6080858703121561071d5761071c6104fb565b5b5f61072a8782880161051e565b945050602061073b8782880161069d565b935050604061074c878288016106c7565b925050606061075d878288016106f1565b91505092959194509250565b610772816104ff565b82525050565b5f60208201905061078b5f830184610769565b92915050565b61079a8161057c565b82525050565b6107a9816105ab565b82525050565b6107b8816105c3565b82525050565b6107c7816105dd565b82525050565b5f60c0820190506107e05f830189610791565b6107ed6020830188610769565b6107fa60408301876107a0565b61080760608301866107af565b6108146080830185610769565b61082160a08301846107be565b979650505050505050565b5f82825260208201905092915050565b7f4944206f7574206f662072616e676500000000000000000000000000000000005f82015250565b5f610870600f8361082c565b915061087b8261083c565b602082019050919050565b5f6020820190508181035f83015261089d81610864565b9050919050565b7f4e487b71000000000000000000000000000000000000000000000000000000005f52603260045260245ffd5b7f496e76616c6964206672657175656e63790000000000000000000000000000005f82015250565b5f61090560118361082c565b9150610910826108d1565b602082019050919050565b5f6020820190508181035f830152610932816108f9565b9050919050565b7f52535349206f7574206f662072616e67650000000000000000000000000000005f82015250565b5f61096d60118361082c565b915061097882610939565b602082019050919050565b5f6020820190508181035f83015261099a81610961565b9050919050565b5f60a0820190506109b45f830188610769565b6109c160208301876107a0565b6109ce60408301866107af565b6109db60608301856107be565b6109e86080830184610769565b969550505050505056fea2646970667358221220e530075b9b22129efc93bbd5ac8a6156400bd031b2a74bc29ae249143d1e815764736f6c634300081f0033",
					"opcodes": "PUSH1 0x80 PUSH1 0x40 MSTORE CALLVALUE DUP1 ISZERO PUSH1 0xE JUMPI PUSH0 PUSH0 REVERT JUMPDEST POP PUSH2 0xA28 DUP1 PUSH2 0x1C PUSH0 CODECOPY PUSH0 RETURN INVALID PUSH1 0x80 PUSH1 0x40 MSTORE CALLVALUE DUP1 ISZERO PUSH2 0xF JUMPI PUSH0 PUSH0 REVERT JUMPDEST POP PUSH1 0x4 CALLDATASIZE LT PUSH2 0x49 JUMPI PUSH0 CALLDATALOAD PUSH1 0xE0 SHR DUP1 PUSH3 0x87A788 EQ PUSH2 0x4D JUMPI DUP1 PUSH4 0x380351A EQ PUSH2 0x7D JUMPI DUP1 PUSH4 0x9E6FB472 EQ PUSH2 0xAD JUMPI DUP1 PUSH4 0xD5DA886D EQ PUSH2 0xCB JUMPI JUMPDEST PUSH0 PUSH0 REVERT JUMPDEST PUSH2 0x67 PUSH1 0x4 DUP1 CALLDATASIZE SUB DUP2 ADD SWAP1 PUSH2 0x62 SWAP2 SWAP1 PUSH2 0x532 JUMP JUMPDEST PUSH2 0x100 JUMP JUMPDEST PUSH1 0x40 MLOAD PUSH2 0x74 SWAP2 SWAP1 PUSH2 0x66E JUMP JUMPDEST PUSH1 0x40 MLOAD DUP1 SWAP2 SUB SWAP1 RETURN JUMPDEST PUSH2 0x97 PUSH1 0x4 DUP1 CALLDATASIZE SUB DUP2 ADD SWAP1 PUSH2 0x92 SWAP2 SWAP1 PUSH2 0x705 JUMP JUMPDEST PUSH2 0x215 JUMP JUMPDEST PUSH1 0x40 MLOAD PUSH2 0xA4 SWAP2 SWAP1 PUSH2 0x778 JUMP JUMPDEST PUSH1 0x40 MLOAD DUP1 SWAP2 SUB SWAP1 RETURN JUMPDEST PUSH2 0xB5 PUSH2 0x437 JUMP JUMPDEST PUSH1 0x40 MLOAD PUSH2 0xC2 SWAP2 SWAP1 PUSH2 0x778 JUMP JUMPDEST PUSH1 0x40 MLOAD DUP1 SWAP2 SUB SWAP1 RETURN JUMPDEST PUSH2 0xE5 PUSH1 0x4 DUP1 CALLDATASIZE SUB DUP2 ADD SWAP1 PUSH2 0xE0 SWAP2 SWAP1 PUSH2 0x532 JUMP JUMPDEST PUSH2 0x442 JUMP JUMPDEST PUSH1 0x40 MLOAD PUSH2 0xF7 SWAP7 SWAP6 SWAP5 SWAP4 SWAP3 SWAP2 SWAP1 PUSH2 0x7CD JUMP JUMPDEST PUSH1 0x40 MLOAD DUP1 SWAP2 SUB SWAP1 RETURN JUMPDEST PUSH2 0x108 PUSH2 0x4B3 JUMP JUMPDEST PUSH0 DUP1 SLOAD SWAP1 POP DUP3 LT PUSH2 0x14E JUMPI PUSH1 0x40 MLOAD PUSH32 0x8C379A000000000000000000000000000000000000000000000000000000000 DUP2 MSTORE PUSH1 0x4 ADD PUSH2 0x145 SWAP1 PUSH2 0x886 JUMP JUMPDEST PUSH1 0x40 MLOAD DUP1 SWAP2 SUB SWAP1 REVERT JUMPDEST PUSH0 DUP3 DUP2 SLOAD DUP2 LT PUSH2 0x161 JUMPI PUSH2 0x160 PUSH2 0x8A4 JUMP JUMPDEST JUMPDEST SWAP1 PUSH0 MSTORE PUSH1 0x20 PUSH0 KECCAK256 SWAP1 PUSH1 0x6 MUL ADD PUSH1 0x40 MLOAD DUP1 PUSH1 0xC0 ADD PUSH1 0x40 MSTORE SWAP1 DUP2 PUSH0 DUP3 ADD PUSH0 SWAP1 SLOAD SWAP1 PUSH2 0x100 EXP SWAP1 DIV PUSH20 0xFFFFFFFFFFFFFFFFFFFFFFFFFFFFFFFFFFFFFFFF AND PUSH20 0xFFFFFFFFFFFFFFFFFFFFFFFFFFFFFFFFFFFFFFFF AND PUSH20 0xFFFFFFFFFFFFFFFFFFFFFFFFFFFFFFFFFFFFFFFF AND DUP2 MSTORE PUSH1 0x20 ADD PUSH1 0x1 DUP3 ADD SLOAD DUP2 MSTORE PUSH1 0x20 ADD PUSH1 0x2 DUP3 ADD SLOAD DUP2 MSTORE PUSH1 0x20 ADD PUSH1 0x3 DUP3 ADD PUSH0 SWAP1 SLOAD SWAP1 PUSH2 0x100 EXP SWAP1 DIV PUSH1 0xFF AND ISZERO ISZERO ISZERO ISZERO DUP2 MSTORE PUSH1 0x20 ADD PUSH1 0x4 DUP3 ADD SLOAD DUP2 MSTORE PUSH1 0x20 ADD PUSH1 0x5 DUP3 ADD SLOAD DUP2 MSTORE POP POP SWAP1 POP SWAP2 SWAP1 POP JUMP JUMPDEST PUSH0 PUSH0 DUP6 GT DUP1 ISZERO PUSH2 0x22A JUMPI POP PUSH5 0x45D964B800 DUP6 GT ISZERO JUMPDEST PUSH2 0x269 JUMPI PUSH1 0x40 MLOAD PUSH32 0x8C379A000000000000000000000000000000000000000000000000000000000 DUP2 MSTORE PUSH1 0x4 ADD PUSH2 0x260 SWAP1 PUSH2 0x91B JUMP JUMPDEST PUSH1 0x40 MLOAD DUP1 SWAP2 SUB SWAP1 REVERT JUMPDEST PUSH32 0xFFFFFFFFFFFFFFFFFFFFFFFFFFFFFFFFFFFFFFFFFFFFFFFFFFFFFFFFFFFFFF6A DUP5 SLT ISZERO DUP1 ISZERO PUSH2 0x299 JUMPI POP PUSH0 DUP5 SGT ISZERO JUMPDEST PUSH2 0x2D8 JUMPI PUSH1 0x40 MLOAD PUSH32 0x8C379A000000000000000000000000000000000000000000000000000000000 DUP2 MSTORE PUSH1 0x4 ADD PUSH2 0x2CF SWAP1 PUSH2 0x983 JUMP JUMPDEST PUSH1 0x40 MLOAD DUP1 SWAP2 SUB SWAP1 REVERT JUMPDEST PUSH0 DUP1 SLOAD SWAP1 POP SWAP1 POP PUSH0 PUSH1 0x40 MLOAD DUP1 PUSH1 0xC0 ADD PUSH1 0x40 MSTORE DUP1 CALLER PUSH20 0xFFFFFFFFFFFFFFFFFFFFFFFFFFFFFFFFFFFFFFFF AND DUP2 MSTORE PUSH1 0x20 ADD DUP8 DUP2 MSTORE PUSH1 0x20 ADD DUP7 DUP2 MSTORE PUSH1 0x20 ADD DUP6 ISZERO ISZERO DUP2 MSTORE PUSH1 0x20 ADD TIMESTAMP DUP2 MSTORE PUSH1 0x20 ADD DUP5 DUP2 MSTORE POP SWAP1 DUP1 PUSH1 0x1 DUP2 SLOAD ADD DUP1 DUP3 SSTORE DUP1 SWAP2 POP POP PUSH1 0x1 SWAP1 SUB SWAP1 PUSH0 MSTORE PUSH1 0x20 PUSH0 KECCAK256 SWAP1 PUSH1 0x6 MUL ADD PUSH0 SWAP1 SWAP2 SWAP1 SWAP2 SWAP1 SWAP2 POP PUSH0 DUP3 ADD MLOAD DUP2 PUSH0 ADD PUSH0 PUSH2 0x100 EXP DUP2 SLOAD DUP2 PUSH20 0xFFFFFFFFFFFFFFFFFFFFFFFFFFFFFFFFFFFFFFFF MUL NOT AND SWAP1 DUP4 PUSH20 0xFFFFFFFFFFFFFFFFFFFFFFFFFFFFFFFFFFFFFFFF AND MUL OR SWAP1 SSTORE POP PUSH1 0x20 DUP3 ADD MLOAD DUP2 PUSH1 0x1 ADD SSTORE PUSH1 0x40 DUP3 ADD MLOAD DUP2 PUSH1 0x2 ADD SSTORE PUSH1 0x60 DUP3 ADD MLOAD DUP2 PUSH1 0x3 ADD PUSH0 PUSH2 0x100 EXP DUP2 SLOAD DUP2 PUSH1 0xFF MUL NOT AND SWAP1 DUP4 ISZERO ISZERO MUL OR SWAP1 SSTORE POP PUSH1 0x80 DUP3 ADD MLOAD DUP2 PUSH1 0x4 ADD SSTORE PUSH1 0xA0 DUP3 ADD MLOAD DUP2 PUSH1 0x5 ADD SSTORE POP POP CALLER PUSH20 0xFFFFFFFFFFFFFFFFFFFFFFFFFFFFFFFFFFFFFFFF AND DUP2 PUSH32 0x20834E328BF442F3826A680EF9CB83971D02B014CC61489AFEE91B4A60C23618 DUP8 DUP8 DUP8 DUP8 TIMESTAMP PUSH1 0x40 MLOAD PUSH2 0x427 SWAP6 SWAP5 SWAP4 SWAP3 SWAP2 SWAP1 PUSH2 0x9A1 JUMP JUMPDEST PUSH1 0x40 MLOAD DUP1 SWAP2 SUB SWAP1 LOG3 SWAP5 SWAP4 POP POP POP POP JUMP JUMPDEST PUSH0 PUSH0 DUP1 SLOAD SWAP1 POP SWAP1 POP SWAP1 JUMP JUMPDEST PUSH0 DUP2 DUP2 SLOAD DUP2 LT PUSH2 0x450 JUMPI PUSH0 DUP1 REVERT JUMPDEST SWAP1 PUSH0 MSTORE PUSH1 0x20 PUSH0 KECCAK256 SWAP1 PUSH1 0x6 MUL ADD PUSH0 SWAP2 POP SWAP1 POP DUP1 PUSH0 ADD PUSH0 SWAP1 SLOAD SWAP1 PUSH2 0x100 EXP SWAP1 DIV PUSH20 0xFFFFFFFFFFFFFFFFFFFFFFFFFFFFFFFFFFFFFFFF AND SWAP1 DUP1 PUSH1 0x1 ADD SLOAD SWAP1 DUP1 PUSH1 0x2 ADD SLOAD SWAP1 DUP1 PUSH1 0x3 ADD PUSH0 SWAP1 SLOAD SWAP1 PUSH2 0x100 EXP SWAP1 DIV PUSH1 0xFF AND SWAP1 DUP1 PUSH1 0x4 ADD SLOAD SWAP1 DUP1 PUSH1 0x5 ADD SLOAD SWAP1 POP DUP7 JUMP JUMPDEST PUSH1 0x40 MLOAD DUP1 PUSH1 0xC0 ADD PUSH1 0x40 MSTORE DUP1 PUSH0 PUSH20 0xFFFFFFFFFFFFFFFFFFFFFFFFFFFFFFFFFFFFFFFF AND DUP2 MSTORE PUSH1 0x20 ADD PUSH0 DUP2 MSTORE PUSH1 0x20 ADD PUSH0 DUP2 MSTORE PUSH1 0x20 ADD PUSH0 ISZERO ISZERO DUP2 MSTORE PUSH1 0x20 ADD PUSH0 DUP2 MSTORE PUSH1 0x20 ADD PUSH0 DUP2 MSTORE POP SWAP1 JUMP JUMPDEST PUSH0 PUSH0 REVERT JUMPDEST PUSH0 DUP2 SWAP1 POP SWAP2 SWAP1 POP JUMP JUMPDEST PUSH2 0x511 DUP2 PUSH2 0x4FF JUMP JUMPDEST DUP2 EQ PUSH2 0x51B JUMPI PUSH0 PUSH0 REVERT JUMPDEST POP JUMP JUMPDEST PUSH0 DUP2 CALLDATALOAD SWAP1 POP PUSH2 0x52C DUP2 PUSH2 0x508 JUMP JUMPDEST SWAP3 SWAP2 POP POP JUMP JUMPDEST PUSH0 PUSH1 0x20 DUP3 DUP5 SUB SLT ISZERO PUSH2 0x547 JUMPI PUSH2 0x546 PUSH2 0x4FB JUMP JUMPDEST JUMPDEST PUSH0 PUSH2 0x554 DUP5 DUP3 DUP6 ADD PUSH2 0x51E JUMP JUMPDEST SWAP2 POP POP SWAP3 SWAP2 POP POP JUMP JUMPDEST PUSH0 PUSH20 0xFFFFFFFFFFFFFFFFFFFFFFFFFFFFFFFFFFFFFFFF DUP3 AND SWAP1 POP SWAP2 SWAP1 POP JUMP JUMPDEST PUSH0 PUSH2 0x586 DUP3 PUSH2 0x55D JUMP JUMPDEST SWAP1 POP SWAP2 SWAP1 POP JUMP JUMPDEST PUSH2 0x596 DUP2 PUSH2 0x57C JUMP JUMPDEST DUP3 MSTORE POP POP JUMP JUMPDEST PUSH2 0x5A5 DUP2 PUSH2 0x4FF JUMP JUMPDEST DUP3 MSTORE POP POP JUMP JUMPDEST PUSH0 DUP2 SWAP1 POP SWAP2 SWAP1 POP JUMP JUMPDEST PUSH2 0x5BD DUP2 PUSH2 0x5AB JUMP JUMPDEST DUP3 MSTORE POP POP JUMP JUMPDEST PUSH0 DUP2 ISZERO ISZERO SWAP1 POP SWAP2 SWAP1 POP JUMP JUMPDEST PUSH2 0x5D7 DUP2 PUSH2 0x5C3 JUMP JUMPDEST DUP3 MSTORE POP POP JUMP JUMPDEST PUSH0 DUP2 SWAP1 POP SWAP2 SWAP1 POP JUMP JUMPDEST PUSH2 0x5EF DUP2 PUSH2 0x5DD JUMP JUMPDEST DUP3 MSTORE POP POP JUMP JUMPDEST PUSH1 0xC0 DUP3 ADD PUSH0 DUP3 ADD MLOAD PUSH2 0x609 PUSH0 DUP6 ADD DUP3 PUSH2 0x58D JUMP JUMPDEST POP PUSH1 0x20 DUP3 ADD MLOAD PUSH2 0x61C PUSH1 0x20 DUP6 ADD DUP3 PUSH2 0x59C JUMP JUMPDEST POP PUSH1 0x40 DUP3 ADD MLOAD PUSH2 0x62F PUSH1 0x40 DUP6 ADD DUP3 PUSH2 0x5B4 JUMP JUMPDEST POP PUSH1 0x60 DUP3 ADD MLOAD PUSH2 0x642 PUSH1 0x60 DUP6 ADD DUP3 PUSH2 0x5CE JUMP JUMPDEST POP PUSH1 0x80 DUP3 ADD MLOAD PUSH2 0x655 PUSH1 0x80 DUP6 ADD DUP3 PUSH2 0x59C JUMP JUMPDEST POP PUSH1 0xA0 DUP3 ADD MLOAD PUSH2 0x668 PUSH1 0xA0 DUP6 ADD DUP3 PUSH2 0x5E6 JUMP JUMPDEST POP POP POP POP JUMP JUMPDEST PUSH0 PUSH1 0xC0 DUP3 ADD SWAP1 POP PUSH2 0x681 PUSH0 DUP4 ADD DUP5 PUSH2 0x5F5 JUMP JUMPDEST SWAP3 SWAP2 POP POP JUMP JUMPDEST PUSH2 0x690 DUP2 PUSH2 0x5AB JUMP JUMPDEST DUP2 EQ PUSH2 0x69A JUMPI PUSH0 PUSH0 REVERT JUMPDEST POP JUMP JUMPDEST PUSH0 DUP2 CALLDATALOAD SWAP1 POP PUSH2 0x6AB DUP2 PUSH2 0x687 JUMP JUMPDEST SWAP3 SWAP2 POP POP JUMP JUMPDEST PUSH2 0x6BA DUP2 PUSH2 0x5C3 JUMP JUMPDEST DUP2 EQ PUSH2 0x6C4 JUMPI PUSH0 PUSH0 REVERT JUMPDEST POP JUMP JUMPDEST PUSH0 DUP2 CALLDATALOAD SWAP1 POP PUSH2 0x6D5 DUP2 PUSH2 0x6B1 JUMP JUMPDEST SWAP3 SWAP2 POP POP JUMP JUMPDEST PUSH2 0x6E4 DUP2 PUSH2 0x5DD JUMP JUMPDEST DUP2 EQ PUSH2 0x6EE JUMPI PUSH0 PUSH0 REVERT JUMPDEST POP JUMP JUMPDEST PUSH0 DUP2 CALLDATALOAD SWAP1 POP PUSH2 0x6FF DUP2 PUSH2 0x6DB JUMP JUMPDEST SWAP3 SWAP2 POP POP JUMP JUMPDEST PUSH0 PUSH0 PUSH0 PUSH0 PUSH1 0x80 DUP6 DUP8 SUB SLT ISZERO PUSH2 0x71D JUMPI PUSH2 0x71C PUSH2 0x4FB JUMP JUMPDEST JUMPDEST PUSH0 PUSH2 0x72A DUP8 DUP3 DUP9 ADD PUSH2 0x51E JUMP JUMPDEST SWAP5 POP POP PUSH1 0x20 PUSH2 0x73B DUP8 DUP3 DUP9 ADD PUSH2 0x69D JUMP JUMPDEST SWAP4 POP POP PUSH1 0x40 PUSH2 0x74C DUP8 DUP3 DUP9 ADD PUSH2 0x6C7 JUMP JUMPDEST SWAP3 POP POP PUSH1 0x60 PUSH2 0x75D DUP8 DUP3 DUP9 ADD PUSH2 0x6F1 JUMP JUMPDEST SWAP2 POP POP SWAP3 SWAP6 SWAP2 SWAP5 POP SWAP3 POP JUMP JUMPDEST PUSH2 0x772 DUP2 PUSH2 0x4FF JUMP JUMPDEST DUP3 MSTORE POP POP JUMP JUMPDEST PUSH0 PUSH1 0x20 DUP3 ADD SWAP1 POP PUSH2 0x78B PUSH0 DUP4 ADD DUP5 PUSH2 0x769 JUMP JUMPDEST SWAP3 SWAP2 POP POP JUMP JUMPDEST PUSH2 0x79A DUP2 PUSH2 0x57C JUMP JUMPDEST DUP3 MSTORE POP POP JUMP JUMPDEST PUSH2 0x7A9 DUP2 PUSH2 0x5AB JUMP JUMPDEST DUP3 MSTORE POP POP JUMP JUMPDEST PUSH2 0x7B8 DUP2 PUSH2 0x5C3 JUMP JUMPDEST DUP3 MSTORE POP POP JUMP JUMPDEST PUSH2 0x7C7 DUP2 PUSH2 0x5DD JUMP JUMPDEST DUP3 MSTORE POP POP JUMP JUMPDEST PUSH0 PUSH1 0xC0 DUP3 ADD SWAP1 POP PUSH2 0x7E0 PUSH0 DUP4 ADD DUP10 PUSH2 0x791 JUMP JUMPDEST PUSH2 0x7ED PUSH1 0x20 DUP4 ADD DUP9 PUSH2 0x769 JUMP JUMPDEST PUSH2 0x7FA PUSH1 0x40 DUP4 ADD DUP8 PUSH2 0x7A0 JUMP JUMPDEST PUSH2 0x807 PUSH1 0x60 DUP4 ADD DUP7 PUSH2 0x7AF JUMP JUMPDEST PUSH2 0x814 PUSH1 0x80 DUP4 ADD DUP6 PUSH2 0x769 JUMP JUMPDEST PUSH2 0x821 PUSH1 0xA0 DUP4 ADD DUP5 PUSH2 0x7BE JUMP JUMPDEST SWAP8 SWAP7 POP POP POP POP POP POP POP JUMP JUMPDEST PUSH0 DUP3 DUP3 MSTORE PUSH1 0x20 DUP3 ADD SWAP1 POP SWAP3 SWAP2 POP POP JUMP JUMPDEST PUSH32 0x4944206F7574206F662072616E67650000000000000000000000000000000000 PUSH0 DUP3 ADD MSTORE POP JUMP JUMPDEST PUSH0 PUSH2 0x870 PUSH1 0xF DUP4 PUSH2 0x82C JUMP JUMPDEST SWAP2 POP PUSH2 0x87B DUP3 PUSH2 0x83C JUMP JUMPDEST PUSH1 0x20 DUP3 ADD SWAP1 POP SWAP2 SWAP1 POP JUMP JUMPDEST PUSH0 PUSH1 0x20 DUP3 ADD SWAP1 POP DUP2 DUP2 SUB PUSH0 DUP4 ADD MSTORE PUSH2 0x89D DUP2 PUSH2 0x864 JUMP JUMPDEST SWAP1 POP SWAP2 SWAP1 POP JUMP JUMPDEST PUSH32 0x4E487B7100000000000000000000000000000000000000000000000000000000 PUSH0 MSTORE PUSH1 0x32 PUSH1 0x4 MSTORE PUSH1 0x24 PUSH0 REVERT JUMPDEST PUSH32 0x496E76616C6964206672657175656E6379000000000000000000000000000000 PUSH0 DUP3 ADD MSTORE POP JUMP JUMPDEST PUSH0 PUSH2 0x905 PUSH1 0x11 DUP4 PUSH2 0x82C JUMP JUMPDEST SWAP2 POP PUSH2 0x910 DUP3 PUSH2 0x8D1 JUMP JUMPDEST PUSH1 0x20 DUP3 ADD SWAP1 POP SWAP2 SWAP1 POP JUMP JUMPDEST PUSH0 PUSH1 0x20 DUP3 ADD SWAP1 POP DUP2 DUP2 SUB PUSH0 DUP4 ADD MSTORE PUSH2 0x932 DUP2 PUSH2 0x8F9 JUMP JUMPDEST SWAP1 POP SWAP2 SWAP1 POP JUMP JUMPDEST PUSH32 0x52535349206F7574206F662072616E6765000000000000000000000000000000 PUSH0 DUP3 ADD MSTORE POP JUMP JUMPDEST PUSH0 PUSH2 0x96D PUSH1 0x11 DUP4 PUSH2 0x82C JUMP JUMPDEST SWAP2 POP PUSH2 0x978 DUP3 PUSH2 0x939 JUMP JUMPDEST PUSH1 0x20 DUP3 ADD SWAP1 POP SWAP2 SWAP1 POP JUMP JUMPDEST PUSH0 PUSH1 0x20 DUP3 ADD SWAP1 POP DUP2 DUP2 SUB PUSH0 DUP4 ADD MSTORE PUSH2 0x99A DUP2 PUSH2 0x961 JUMP JUMPDEST SWAP1 POP SWAP2 SWAP1 POP JUMP JUMPDEST PUSH0 PUSH1 0xA0 DUP3 ADD SWAP1 POP PUSH2 0x9B4 PUSH0 DUP4 ADD DUP9 PUSH2 0x769 JUMP JUMPDEST PUSH2 0x9C1 PUSH1 0x20 DUP4 ADD DUP8 PUSH2 0x7A0 JUMP JUMPDEST PUSH2 0x9CE PUSH1 0x40 DUP4 ADD DUP7 PUSH2 0x7AF JUMP JUMPDEST PUSH2 0x9DB PUSH1 0x60 DUP4 ADD DUP6 PUSH2 0x7BE JUMP JUMPDEST PUSH2 0x9E8 PUSH1 0x80 DUP4 ADD DUP5 PUSH2 0x769 JUMP JUMPDEST SWAP7 SWAP6 POP POP POP POP POP POP JUMP INVALID LOG2 PUSH5 0x6970667358 0x22 SLT KECCAK256 JUMPF 0x3007 JUMPDEST SWAP12 0x22 SLT SWAP15 0xFC SWAP4 0xBB 0xD5 0xAC DUP11 PUSH2 0x5640 SIGNEXTEND 0xD0 BALANCE 0xB2 0xA7 0x4B 0xC2 SWAP11 0xE2 BLOBHASH EQ RETURNDATASIZE CLZ DUP2 JUMPI PUSH5 0x736F6C6343 STOP ADDMOD 0x1F STOP CALLER "
				},
				"gasEstimates": {
					"creation": {
						"codeDepositCost": "520000",
						"executionCost": "554",
						"totalCost": "520554"
					},
					"external": {
						"getReading(uint256)": "infinite",
						"readings(uint256)": "infinite",
						"submitReading(uint256,int256,bool,bytes32)": "infinite",
						"totalReadings()": "2461"
					}
				},
				"methodIdentifiers": {
					"getReading(uint256)": "0087a788",
					"readings(uint256)": "d5da886d",
					"submitReading(uint256,int256,bool,bytes32)": "0380351a",
					"totalReadings()": "9e6fb472"
				}
			},
			"storageLayout": {
				"storage": [
					{
						"astId": 18,
						"contract": "blockchain-jamlog.sol:SDRSignalLog",
						"label": "readings",
						"offset": 0,
						"slot": "0",
						"type": "t_array(t_struct(Reading)14_storage)dyn_storage"
					}
				],
				"types": {
					"t_address": {
						"encoding": "inplace",
						"label": "address",
						"numberOfBytes": "20"
					},
					"t_array(t_struct(Reading)14_storage)dyn_storage": {
						"base": "t_struct(Reading)14_storage",
						"encoding": "dynamic_array",
						"label": "struct SDRSignalLog.Reading[]",
						"numberOfBytes": "32"
					},
					"t_bool": {
						"encoding": "inplace",
						"label": "bool",
						"numberOfBytes": "1"
					},
					"t_bytes32": {
						"encoding": "inplace",
						"label": "bytes32",
						"numberOfBytes": "32"
					},
					"t_int256": {
						"encoding": "inplace",
						"label": "int256",
						"numberOfBytes": "32"
					},
					"t_struct(Reading)14_storage": {
						"encoding": "inplace",
						"label": "struct SDRSignalLog.Reading",
						"members": [
							{
								"astId": 3,
								"contract": "blockchain-jamlog.sol:SDRSignalLog",
								"label": "reporter",
								"offset": 0,
								"slot": "0",
								"type": "t_address"
							},
							{
								"astId": 5,
								"contract": "blockchain-jamlog.sol:SDRSignalLog",
								"label": "freqHz",
								"offset": 0,
								"slot": "1",
								"type": "t_uint256"
							},
							{
								"astId": 7,
								"contract": "blockchain-jamlog.sol:SDRSignalLog",
								"label": "rssi",
								"offset": 0,
								"slot": "2",
								"type": "t_int256"
							},
							{
								"astId": 9,
								"contract": "blockchain-jamlog.sol:SDRSignalLog",
								"label": "detected",
								"offset": 0,
								"slot": "3",
								"type": "t_bool"
							},
							{
								"astId": 11,
								"contract": "blockchain-jamlog.sol:SDRSignalLog",
								"label": "time",
								"offset": 0,
								"slot": "4",
								"type": "t_uint256"
							},
							{
								"astId": 13,
								"contract": "blockchain-jamlog.sol:SDRSignalLog",
								"label": "metaHash",
								"offset": 0,
								"slot": "5",
								"type": "t_bytes32"
							}
						],
						"numberOfBytes": "192"
					},
					"t_uint256": {
						"encoding": "inplace",
						"label": "uint256",
						"numberOfBytes": "32"
					}
				}
			},
			"userdoc": {
				"kind": "user",
				"methods": {},
				"version": 1
			}
		}
	}
}